{"abi":[{"type":"constructor","inputs":[{"name":"token_","type":"address","internalType":"address"}],"stateMutability":"nonpayable"},{"type":"fallback","stateMutability":"payable"},{"type":"receive","stateMutability":"payable"},{"type":"function","name":"computeNextVestingScheduleIdForHolder","inputs":[{"name":"holder","type":"address","internalType":"address"}],"outputs":[{"name":"","type":"bytes32","internalType":"bytes32"}],"stateMutability":"view"},{"type":"function","name":"computeReleasableAmount","inputs":[{"name":"vestingScheduleId","type":"bytes32","internalType":"bytes32"}],"outputs":[{"name":"","type":"uint256","internalType":"uint256"}],"stateMutability":"view"},{"type":"function","name":"computeVestingScheduleIdForAddressAndIndex","inputs":[{"name":"holder","type":"address","internalType":"address"},{"name":"index","type":"uint256","internalType":"uint256"}],"outputs":[{"name":"","type":"bytes32","internalType":"bytes32"}],"stateMutability":"pure"},{"type":"function","name":"createVestingSchedule","inputs":[{"name":"_beneficiary","type":"address","internalType":"address"},{"name":"_start","type":"uint256","internalType":"uint256"},{"name":"_cliff","type":"uint256","internalType":"uint256"},{"name":"_duration","type":"uint256","internalType":"uint256"},{"name":"_slicePeriodSeconds","type":"uint256","internalType":"uint256"},{"name":"_revocable","type":"bool","internalType":"bool"},{"name":"_amount","type":"uint256","internalType":"uint256"}],"outputs":[],"stateMutability":"nonpayable"},{"type":"function","name":"getLastVestingScheduleForHolder","inputs":[{"name":"holder","type":"address","internalType":"address"}],"outputs":[{"name":"","type":"tuple","internalType":"struct TokenVesting.VestingSchedule","components":[{"name":"beneficiary","type":"address","internalType":"address"},{"name":"cliff","type":"uint256","internalType":"uint256"},{"name":"start","type":"uint256","internalType":"uint256"},{"name":"duration","type":"uint256","internalType":"uint256"},{"name":"slicePeriodSeconds","type":"uint256","internalType":"uint256"},{"name":"revocable","type":"bool","internalType":"bool"},{"name":"amountTotal","type":"uint256","internalType":"uint256"},{"name":"released","type":"uint256","internalType":"uint256"},{"name":"revoked","type":"bool","internalType":"bool"}]}],"stateMutability":"view"},{"type":"function","name":"getToken","inputs":[],"outputs":[{"name":"","type":"address","internalType":"address"}],"stateMutability":"view"},{"type":"function","name":"getVestingIdAtIndex","inputs":[{"name":"index","type":"uint256","internalType":"uint256"}],"outputs":[{"name":"","type":"bytes32","internalType":"bytes32"}],"stateMutability":"view"},{"type":"function","name":"getVestingSchedule","inputs":[{"name":"vestingScheduleId","type":"bytes32","internalType":"bytes32"}],"outputs":[{"name":"","type":"tuple","internalType":"struct TokenVesting.VestingSchedule","components":[{"name":"beneficiary","type":"address","internalType":"address"},{"name":"cliff","type":"uint256","internalType":"uint256"},{"name":"start","type":"uint256","internalType":"uint256"},{"name":"duration","type":"uint256","internalType":"uint256"},{"name":"slicePeriodSeconds","type":"uint256","internalType":"uint256"},{"name":"revocable","type":"bool","internalType":"bool"},{"name":"amountTotal","type":"uint256","internalType":"uint256"},{"name":"released","type":"uint256","internalType":"uint256"},{"name":"revoked","type":"bool","internalType":"bool"}]}],"stateMutability":"view"},{"type":"function","name":"getVestingScheduleByAddressAndIndex","inputs":[{"name":"holder","type":"address","internalType":"address"},{"name":"index","type":"uint256","internalType":"uint256"}],"outputs":[{"name":"","type":"tuple","internalType":"struct TokenVesting.VestingSchedule","components":[{"name":"beneficiary","type":"address","internalType":"address"},{"name":"cliff","type":"uint256","internalType":"uint256"},{"name":"start","type":"uint256","internalType":"uint256"},{"name":"duration","type":"uint256","internalType":"uint256"},{"name":"slicePeriodSeconds","type":"uint256","internalType":"uint256"},{"name":"revocable","type":"bool","internalType":"bool"},{"name":"amountTotal","type":"uint256","internalType":"uint256"},{"name":"released","type":"uint256","internalType":"uint256"},{"name":"revoked","type":"bool","internalType":"bool"}]}],"stateMutability":"view"},{"type":"function","name":"getVestingSchedulesCount","inputs":[],"outputs":[{"name":"","type":"uint256","internalType":"uint256"}],"stateMutability":"view"},{"type":"function","name":"getVestingSchedulesCountByBeneficiary","inputs":[{"name":"_beneficiary","type":"address","internalType":"address"}],"outputs":[{"name":"","type":"uint256","internalType":"uint256"}],"stateMutability":"view"},{"type":"function","name":"getVestingSchedulesTotalAmount","inputs":[],"outputs":[{"name":"","type":"uint256","internalType":"uint256"}],"stateMutability":"view"},{"type":"function","name":"getWithdrawableAmount","inputs":[],"outputs":[{"name":"","type":"uint256","internalType":"uint256"}],"stateMutability":"view"},{"type":"function","name":"owner","inputs":[],"outputs":[{"name":"","type":"address","internalType":"address"}],"stateMutability":"view"},{"type":"function","name":"release","inputs":[{"name":"vestingScheduleId","type":"bytes32","internalType":"bytes32"},{"name":"amount","type":"uint256","internalType":"uint256"}],"outputs":[],"stateMutability":"nonpayable"},{"type":"function","name":"revoke","inputs":[{"name":"vestingScheduleId","type":"bytes32","internalType":"bytes32"}],"outputs":[],"stateMutability":"nonpayable"},{"type":"function","name":"transferOwnership","inputs":[{"name":"newOwner","type":"address","internalType":"address"}],"outputs":[],"stateMutability":"nonpayable"},{"type":"function","name":"withdraw","inputs":[{"name":"amount","type":"uint256","internalType":"uint256"}],"outputs":[],"stateMutability":"nonpayable"},{"type":"event","name":"OwnershipTransferred","inputs":[{"name":"user","type":"address","indexed":true,"internalType":"address"},{"name":"newOwner","type":"address","indexed":true,"internalType":"address"}],"anonymous":false}],"bytecode":{"object":"0x60a0604052600180553480156200001557600080fd5b50604051620028b8380380620028b883398181016040528101906200003b9190620001b7565b33806000806101000a81548173ffffffffffffffffffffffffffffffffffffffff021916908373ffffffffffffffffffffffffffffffffffffffff1602179055508073ffffffffffffffffffffffffffffffffffffffff16600073ffffffffffffffffffffffffffffffffffffffff167f8be0079c531659141344cd1fd0a4f28419497f9722a3daafe3b4186f6b6457e060405160405180910390a350600073ffffffffffffffffffffffffffffffffffffffff168173ffffffffffffffffffffffffffffffffffffffff16036200011257600080fd5b8073ffffffffffffffffffffffffffffffffffffffff1660808173ffffffffffffffffffffffffffffffffffffffff168152505050620001e9565b600080fd5b600073ffffffffffffffffffffffffffffffffffffffff82169050919050565b60006200017f8262000152565b9050919050565b620001918162000172565b81146200019d57600080fd5b50565b600081519050620001b18162000186565b92915050565b600060208284031215620001d057620001cf6200014d565b5b6000620001e084828501620001a0565b91505092915050565b60805161269e6200021a600039600081816108c801528181610a1501528181610d9b0152610f7a015261269e6000f3fe60806040526004361061010d5760003560e01c80638da5cb5b11610095578063ea1bb3d511610064578063ea1bb3d514610385578063f2fde38b146103c2578063f51321d7146103eb578063f7c469f014610428578063f9079b371461046557610114565b80638da5cb5b146102c957806390be10cc146102f45780639ef346b41461031f578063b75c7dc61461035c57610114565b806348deb471116100dc57806348deb471146101be5780635a7bb69a146101e957806366afd8ef146102265780637e913dc61461024f5780638af104da1461028c57610114565b8063130836171461011657806317e289e91461014157806321df0da71461016a5780632e1a7d4d1461019557610114565b3661011457005b005b34801561012257600080fd5b5061012b6104a2565b60405161013891906118e5565b60405180910390f35b34801561014d57600080fd5b50610168600480360381019061016391906119c7565b6104af565b005b34801561017657600080fd5b5061017f6108c4565b60405161018c9190611a78565b60405180910390f35b3480156101a157600080fd5b506101bc60048036038101906101b79190611a93565b6108ec565b005b3480156101ca57600080fd5b506101d3610a45565b6040516101e091906118e5565b60405180910390f35b3480156101f557600080fd5b50610210600480360381019061020b9190611ac0565b610a4f565b60405161021d91906118e5565b60405180910390f35b34801561023257600080fd5b5061024d60048036038101906102489190611b23565b610a98565b005b34801561025b57600080fd5b5061027660048036038101906102719190611ac0565b610dd2565b6040516102839190611c47565b60405180910390f35b34801561029857600080fd5b506102b360048036038101906102ae9190611c63565b610f1c565b6040516102c09190611cb2565b60405180910390f35b3480156102d557600080fd5b506102de610f4f565b6040516102eb9190611a78565b60405180910390f35b34801561030057600080fd5b50610309610f73565b60405161031691906118e5565b60405180910390f35b34801561032b57600080fd5b5061034660048036038101906103419190611ccd565b611021565b6040516103539190611c47565b60405180910390f35b34801561036857600080fd5b50610383600480360381019061037e9190611ccd565b611117565b005b34801561039157600080fd5b506103ac60048036038101906103a79190611ccd565b611381565b6040516103b991906118e5565b60405180910390f35b3480156103ce57600080fd5b506103e960048036038101906103e49190611ac0565b6114af565b005b3480156103f757600080fd5b50610412600480360381019061040d9190611c63565b6115da565b60405161041f9190611c47565b60405180910390f35b34801561043457600080fd5b5061044f600480360381019061044a9190611ac0565b6115fc565b60405161045c9190611cb2565b60405180910390f35b34801561047157600080fd5b5061048c60048036038101906104879190611a93565b61164e565b6040516104999190611cb2565b60405180910390f35b6000600280549050905090565b60008054906101000a900473ffffffffffffffffffffffffffffffffffffffff1673ffffffffffffffffffffffffffffffffffffffff163373ffffffffffffffffffffffffffffffffffffffff161461053d576040517f08c379a000000000000000000000000000000000000000000000000000000000815260040161053490611d57565b60405180910390fd5b80610546610f73565b1015610587576040517f08c379a000000000000000000000000000000000000000000000000000000000815260040161057e90611e0f565b60405180910390fd5b600084116105ca576040517f08c379a00000000000000000000000000000000000000000000000000000000081526004016105c190611ea1565b60405180910390fd5b6000811161060d576040517f08c379a000000000000000000000000000000000000000000000000000000000815260040161060490611f0d565b60405180910390fd5b6001831015610651576040517f08c379a000000000000000000000000000000000000000000000000000000000815260040161064890611f9f565b60405180910390fd5b84841015610694576040517f08c379a000000000000000000000000000000000000000000000000000000000815260040161068b90612031565b60405180910390fd5b600061069f886115fc565b9050600086886106af9190612080565b90506040518061012001604052808a73ffffffffffffffffffffffffffffffffffffffff168152602001828152602001898152602001878152602001868152602001851515815260200184815260200160008152602001600015158152506003600084815260200190815260200160002060008201518160000160006101000a81548173ffffffffffffffffffffffffffffffffffffffff021916908373ffffffffffffffffffffffffffffffffffffffff1602179055506020820151816001015560408201518160020155606082015181600301556080820151816004015560a08201518160050160006101000a81548160ff02191690831515021790555060c0820151816006015560e082015181600701556101008201518160080160006101000a81548160ff021916908315150217905550905050826004546107f59190612080565b60048190555060028290806001815401808255809150506001900390600052602060002001600090919091909150556000600560008b73ffffffffffffffffffffffffffffffffffffffff1673ffffffffffffffffffffffffffffffffffffffff1681526020019081526020016000205490506001816108759190612080565b600560008c73ffffffffffffffffffffffffffffffffffffffff1673ffffffffffffffffffffffffffffffffffffffff1681526020019081526020016000208190555050505050505050505050565b60007f0000000000000000000000000000000000000000000000000000000000000000905090565b6001805414610930576040517f08c379a000000000000000000000000000000000000000000000000000000000815260040161092790612100565b60405180910390fd5b600260018190555060008054906101000a900473ffffffffffffffffffffffffffffffffffffffff1673ffffffffffffffffffffffffffffffffffffffff163373ffffffffffffffffffffffffffffffffffffffff16146109c6576040517f08c379a00000000000000000000000000000000000000000000000000000000081526004016109bd90611d57565b60405180910390fd5b806109cf610f73565b1015610a10576040517f08c379a0000000000000000000000000000000000000000000000000000000008152600401610a0790612192565b60405180910390fd5b610a3b7f000000000000000000000000000000000000000000000000000000000000000033836116bf565b6001808190555050565b6000600454905090565b6000600560008373ffffffffffffffffffffffffffffffffffffffff1673ffffffffffffffffffffffffffffffffffffffff168152602001908152602001600020549050919050565b6001805414610adc576040517f08c379a0000000000000000000000000000000000000000000000000000000008152600401610ad390612100565b60405180910390fd5b6002600181905550816003600082815260200190815260200160002060080160009054906101000a900460ff1615610b1357600080fd5b600060036000858152602001908152602001600020905060008160000160009054906101000a900473ffffffffffffffffffffffffffffffffffffffff1673ffffffffffffffffffffffffffffffffffffffff163373ffffffffffffffffffffffffffffffffffffffff1614905060008060009054906101000a900473ffffffffffffffffffffffffffffffffffffffff1673ffffffffffffffffffffffffffffffffffffffff163373ffffffffffffffffffffffffffffffffffffffff161490508180610bde5750805b610c1d576040517f08c379a0000000000000000000000000000000000000000000000000000000008152600401610c149061224a565b60405180910390fd5b6000610cfc84604051806101200160405290816000820160009054906101000a900473ffffffffffffffffffffffffffffffffffffffff1673ffffffffffffffffffffffffffffffffffffffff1673ffffffffffffffffffffffffffffffffffffffff168152602001600182015481526020016002820154815260200160038201548152602001600482015481526020016005820160009054906101000a900460ff1615151515815260200160068201548152602001600782015481526020016008820160009054906101000a900460ff16151515158152505061177a565b905085811015610d41576040517f08c379a0000000000000000000000000000000000000000000000000000000008152600401610d38906122dc565b60405180910390fd5b858460070154610d519190612080565b846007018190555060008460000160009054906101000a900473ffffffffffffffffffffffffffffffffffffffff16905086600454610d9091906122fc565b600481905550610dc17f000000000000000000000000000000000000000000000000000000000000000082896116bf565b505050505050600180819055505050565b610dda611866565b60036000610e33846001600560008873ffffffffffffffffffffffffffffffffffffffff1673ffffffffffffffffffffffffffffffffffffffff16815260200190815260200160002054610e2e91906122fc565b610f1c565b8152602001908152602001600020604051806101200160405290816000820160009054906101000a900473ffffffffffffffffffffffffffffffffffffffff1673ffffffffffffffffffffffffffffffffffffffff1673ffffffffffffffffffffffffffffffffffffffff168152602001600182015481526020016002820154815260200160038201548152602001600482015481526020016005820160009054906101000a900460ff1615151515815260200160068201548152602001600782015481526020016008820160009054906101000a900460ff1615151515815250509050919050565b60008282604051602001610f31929190612399565b60405160208183030381529060405280519060200120905092915050565b60008054906101000a900473ffffffffffffffffffffffffffffffffffffffff1681565b60006004547f000000000000000000000000000000000000000000000000000000000000000073ffffffffffffffffffffffffffffffffffffffff166370a08231306040518263ffffffff1660e01b8152600401610fd19190611a78565b602060405180830381865afa158015610fee573d6000803e3d6000fd5b505050506040513d601f19601f8201168201806040525081019061101291906123da565b61101c91906122fc565b905090565b611029611866565b60036000838152602001908152602001600020604051806101200160405290816000820160009054906101000a900473ffffffffffffffffffffffffffffffffffffffff1673ffffffffffffffffffffffffffffffffffffffff1673ffffffffffffffffffffffffffffffffffffffff168152602001600182015481526020016002820154815260200160038201548152602001600482015481526020016005820160009054906101000a900460ff1615151515815260200160068201548152602001600782015481526020016008820160009054906101000a900460ff1615151515815250509050919050565b60008054906101000a900473ffffffffffffffffffffffffffffffffffffffff1673ffffffffffffffffffffffffffffffffffffffff163373ffffffffffffffffffffffffffffffffffffffff16146111a5576040517f08c379a000000000000000000000000000000000000000000000000000000000815260040161119c90611d57565b60405180910390fd5b806003600082815260200190815260200160002060080160009054906101000a900460ff16156111d457600080fd5b60006003600084815260200190815260200160002090508060050160009054906101000a900460ff1661123c576040517f08c379a000000000000000000000000000000000000000000000000000000000815260040161123390612479565b60405180910390fd5b600061131b82604051806101200160405290816000820160009054906101000a900473ffffffffffffffffffffffffffffffffffffffff1673ffffffffffffffffffffffffffffffffffffffff1673ffffffffffffffffffffffffffffffffffffffff168152602001600182015481526020016002820154815260200160038201548152602001600482015481526020016005820160009054906101000a900460ff1615151515815260200160068201548152602001600782015481526020016008820160009054906101000a900460ff16151515158152505061177a565b90506000811115611331576113308482610a98565b5b60008260070154836006015461134791906122fc565b90508060045461135791906122fc565b60048190555060018360080160006101000a81548160ff0219169083151502179055505050505050565b6000816003600082815260200190815260200160002060080160009054906101000a900460ff16156113b257600080fd5b60006003600085815260200190815260200160002090506114a681604051806101200160405290816000820160009054906101000a900473ffffffffffffffffffffffffffffffffffffffff1673ffffffffffffffffffffffffffffffffffffffff1673ffffffffffffffffffffffffffffffffffffffff168152602001600182015481526020016002820154815260200160038201548152602001600482015481526020016005820160009054906101000a900460ff1615151515815260200160068201548152602001600782015481526020016008820160009054906101000a900460ff16151515158152505061177a565b92505050919050565b60008054906101000a900473ffffffffffffffffffffffffffffffffffffffff1673ffffffffffffffffffffffffffffffffffffffff163373ffffffffffffffffffffffffffffffffffffffff161461153d576040517f08c379a000000000000000000000000000000000000000000000000000000000815260040161153490611d57565b60405180910390fd5b806000806101000a81548173ffffffffffffffffffffffffffffffffffffffff021916908373ffffffffffffffffffffffffffffffffffffffff1602179055508073ffffffffffffffffffffffffffffffffffffffff163373ffffffffffffffffffffffffffffffffffffffff167f8be0079c531659141344cd1fd0a4f28419497f9722a3daafe3b4186f6b6457e060405160405180910390a350565b6115e2611866565b6115f46115ef8484610f1c565b611021565b905092915050565b600061164782600560008573ffffffffffffffffffffffffffffffffffffffff1673ffffffffffffffffffffffffffffffffffffffff16815260200190815260200160002054610f1c565b9050919050565b60006116586104a2565b8210611699576040517f08c379a00000000000000000000000000000000000000000000000000000000081526004016116909061250b565b60405180910390fd5b600282815481106116ad576116ac61252b565b5b90600052602060002001549050919050565b60006040517fa9059cbb00000000000000000000000000000000000000000000000000000000815273ffffffffffffffffffffffffffffffffffffffff84166004820152826024820152602060006044836000895af1915081601f3d1160016000511416151615611733573d853b15171591505b5080611774576040517f08c379a000000000000000000000000000000000000000000000000000000000815260040161176b906125a6565b60405180910390fd5b50505050565b60008061178561185e565b9050826020015181108061179b57508261010001515b156117aa576000915050611859565b826060015183602001516117be9190612080565b81106117e0578260e001518360c001516117d891906122fc565b915050611859565b60008360200151826117f291906122fc565b90506000846080015190506000818361180b91906125f5565b90506000828261181b9190612626565b905060008760600151828960c001516118349190612626565b61183e91906125f5565b90508760e001518161185091906122fc565b96505050505050505b919050565b600042905090565b604051806101200160405280600073ffffffffffffffffffffffffffffffffffffffff1681526020016000815260200160008152602001600081526020016000815260200160001515815260200160008152602001600081526020016000151581525090565b6000819050919050565b6118df816118cc565b82525050565b60006020820190506118fa60008301846118d6565b92915050565b600080fd5b600073ffffffffffffffffffffffffffffffffffffffff82169050919050565b600061193082611905565b9050919050565b61194081611925565b811461194b57600080fd5b50565b60008135905061195d81611937565b92915050565b61196c816118cc565b811461197757600080fd5b50565b60008135905061198981611963565b92915050565b60008115159050919050565b6119a48161198f565b81146119af57600080fd5b50565b6000813590506119c18161199b565b92915050565b600080600080600080600060e0888a0312156119e6576119e5611900565b5b60006119f48a828b0161194e565b9750506020611a058a828b0161197a565b9650506040611a168a828b0161197a565b9550506060611a278a828b0161197a565b9450506080611a388a828b0161197a565b93505060a0611a498a828b016119b2565b92505060c0611a5a8a828b0161197a565b91505092959891949750929550565b611a7281611925565b82525050565b6000602082019050611a8d6000830184611a69565b92915050565b600060208284031215611aa957611aa8611900565b5b6000611ab78482850161197a565b91505092915050565b600060208284031215611ad657611ad5611900565b5b6000611ae48482850161194e565b91505092915050565b6000819050919050565b611b0081611aed565b8114611b0b57600080fd5b50565b600081359050611b1d81611af7565b92915050565b60008060408385031215611b3a57611b39611900565b5b6000611b4885828601611b0e565b9250506020611b598582860161197a565b9150509250929050565b611b6c81611925565b82525050565b611b7b816118cc565b82525050565b611b8a8161198f565b82525050565b61012082016000820151611ba76000850182611b63565b506020820151611bba6020850182611b72565b506040820151611bcd6040850182611b72565b506060820151611be06060850182611b72565b506080820151611bf36080850182611b72565b5060a0820151611c0660a0850182611b81565b5060c0820151611c1960c0850182611b72565b5060e0820151611c2c60e0850182611b72565b50610100820151611c41610100850182611b81565b50505050565b600061012082019050611c5d6000830184611b90565b92915050565b60008060408385031215611c7a57611c79611900565b5b6000611c888582860161194e565b9250506020611c998582860161197a565b9150509250929050565b611cac81611aed565b82525050565b6000602082019050611cc76000830184611ca3565b92915050565b600060208284031215611ce357611ce2611900565b5b6000611cf184828501611b0e565b91505092915050565b600082825260208201905092915050565b7f554e415554484f52495a45440000000000000000000000000000000000000000600082015250565b6000611d41600c83611cfa565b9150611d4c82611d0b565b602082019050919050565b60006020820190508181036000830152611d7081611d34565b9050919050565b7f546f6b656e56657374696e673a2063616e6e6f7420637265617465207665737460008201527f696e67207363686564756c652062656361757365206e6f74207375666669636960208201527f656e7420746f6b656e7300000000000000000000000000000000000000000000604082015250565b6000611df9604a83611cfa565b9150611e0482611d77565b606082019050919050565b60006020820190508181036000830152611e2881611dec565b9050919050565b7f546f6b656e56657374696e673a206475726174696f6e206d757374206265203e60008201527f2030000000000000000000000000000000000000000000000000000000000000602082015250565b6000611e8b602283611cfa565b9150611e9682611e2f565b604082019050919050565b60006020820190508181036000830152611eba81611e7e565b9050919050565b7f546f6b656e56657374696e673a20616d6f756e74206d757374206265203e2030600082015250565b6000611ef7602083611cfa565b9150611f0282611ec1565b602082019050919050565b60006020820190508181036000830152611f2681611eea565b9050919050565b7f546f6b656e56657374696e673a20736c696365506572696f645365636f6e647360008201527f206d757374206265203e3d203100000000000000000000000000000000000000602082015250565b6000611f89602d83611cfa565b9150611f9482611f2d565b604082019050919050565b60006020820190508181036000830152611fb881611f7c565b9050919050565b7f546f6b656e56657374696e673a206475726174696f6e206d757374206265203e60008201527f3d20636c69666600000000000000000000000000000000000000000000000000602082015250565b600061201b602783611cfa565b915061202682611fbf565b604082019050919050565b6000602082019050818103600083015261204a8161200e565b9050919050565b7f4e487b7100000000000000000000000000000000000000000000000000000000600052601160045260246000fd5b600061208b826118cc565b9150612096836118cc565b92508282019050808211156120ae576120ad612051565b5b92915050565b7f5245454e5452414e435900000000000000000000000000000000000000000000600082015250565b60006120ea600a83611cfa565b91506120f5826120b4565b602082019050919050565b60006020820190508181036000830152612119816120dd565b9050919050565b7f546f6b656e56657374696e673a206e6f7420656e6f756768207769746864726160008201527f7761626c652066756e6473000000000000000000000000000000000000000000602082015250565b600061217c602b83611cfa565b915061218782612120565b604082019050919050565b600060208201905081810360008301526121ab8161216f565b9050919050565b7f546f6b656e56657374696e673a206f6e6c792062656e6566696369617279206160008201527f6e64206f776e65722063616e2072656c656173652076657374656420746f6b6560208201527f6e73000000000000000000000000000000000000000000000000000000000000604082015250565b6000612234604283611cfa565b915061223f826121b2565b606082019050919050565b6000602082019050818103600083015261226381612227565b9050919050565b7f546f6b656e56657374696e673a2063616e6e6f742072656c6561736520746f6b60008201527f656e732c206e6f7420656e6f7567682076657374656420746f6b656e73000000602082015250565b60006122c6603d83611cfa565b91506122d18261226a565b604082019050919050565b600060208201905081810360008301526122f5816122b9565b9050919050565b6000612307826118cc565b9150612312836118cc565b925082820390508181111561232a57612329612051565b5b92915050565b60008160601b9050919050565b600061234882612330565b9050919050565b600061235a8261233d565b9050919050565b61237261236d82611925565b61234f565b82525050565b6000819050919050565b61239361238e826118cc565b612378565b82525050565b60006123a58285612361565b6014820191506123b58284612382565b6020820191508190509392505050565b6000815190506123d481611963565b92915050565b6000602082840312156123f0576123ef611900565b5b60006123fe848285016123c5565b91505092915050565b7f546f6b656e56657374696e673a2076657374696e67206973206e6f742072657660008201527f6f6361626c650000000000000000000000000000000000000000000000000000602082015250565b6000612463602683611cfa565b915061246e82612407565b604082019050919050565b6000602082019050818103600083015261249281612456565b9050919050565b7f546f6b656e56657374696e673a20696e646578206f7574206f6620626f756e6460008201527f7300000000000000000000000000000000000000000000000000000000000000602082015250565b60006124f5602183611cfa565b915061250082612499565b604082019050919050565b60006020820190508181036000830152612524816124e8565b9050919050565b7f4e487b7100000000000000000000000000000000000000000000000000000000600052603260045260246000fd5b7f5452414e534645525f4641494c45440000000000000000000000000000000000600082015250565b6000612590600f83611cfa565b915061259b8261255a565b602082019050919050565b600060208201905081810360008301526125bf81612583565b9050919050565b7f4e487b7100000000000000000000000000000000000000000000000000000000600052601260045260246000fd5b6000612600826118cc565b915061260b836118cc565b92508261261b5761261a6125c6565b5b828204905092915050565b6000612631826118cc565b915061263c836118cc565b925082820261264a816118cc565b9150828204841483151761266157612660612051565b5b509291505056fea2646970667358221220186f14fb42f7123ac48e91562960af511251de44957fdd16e908aeba23ca95da64736f6c63430008130033","linkReferences":{}},"methodIdentifiers":{"computeNextVestingScheduleIdForHolder(address)":"f7c469f0","computeReleasableAmount(bytes32)":"ea1bb3d5","computeVestingScheduleIdForAddressAndIndex(address,uint256)":"8af104da","createVestingSchedule(address,uint256,uint256,uint256,uint256,bool,uint256)":"17e289e9","getLastVestingScheduleForHolder(address)":"7e913dc6","getToken()":"21df0da7","getVestingIdAtIndex(uint256)":"f9079b37","getVestingSchedule(bytes32)":"9ef346b4","getVestingScheduleByAddressAndIndex(address,uint256)":"f51321d7","getVestingSchedulesCount()":"13083617","getVestingSchedulesCountByBeneficiary(address)":"5a7bb69a","getVestingSchedulesTotalAmount()":"48deb471","getWithdrawableAmount()":"90be10cc","owner()":"8da5cb5b","release(bytes32,uint256)":"66afd8ef","revoke(bytes32)":"b75c7dc6","transferOwnership(address)":"f2fde38b","withdraw(uint256)":"2e1a7d4d"},"id":27}